{
  "contractName": "VictimContract",
  "abi": [
    {
      "constant": true,
      "inputs": [],
      "name": "payableCounter",
      "outputs": [
        {
          "name": "",
          "type": "uint256"
        }
      ],
      "payable": false,
      "stateMutability": "view",
      "type": "function"
    },
    {
      "constant": true,
      "inputs": [
        {
          "name": "",
          "type": "address"
        }
      ],
      "name": "balance",
      "outputs": [
        {
          "name": "",
          "type": "uint256"
        }
      ],
      "payable": false,
      "stateMutability": "view",
      "type": "function"
    },
    {
      "payable": true,
      "stateMutability": "payable",
      "type": "fallback"
    },
    {
      "constant": false,
      "inputs": [
        {
          "name": "amount",
          "type": "uint256"
        }
      ],
      "name": "withdraw",
      "outputs": [],
      "payable": true,
      "stateMutability": "payable",
      "type": "function"
    }
  ],
  "bytecode": "0x608060405234801561001057600080fd5b5061032a806100206000396000f3fe608060405260043610610057576000357c0100000000000000000000000000000000000000000000000000000000900463ffffffff1680632e1a7d4d146100b75780633ccd93e9146100e5578063e3d670d714610110575b346000803373ffffffffffffffffffffffffffffffffffffffff1673ffffffffffffffffffffffffffffffffffffffff16815260200190815260200160002060008282540192505081905550600160008154809291906001019190505550005b6100e3600480360360208110156100cd57600080fd5b8101908080359060200190929190505050610175565b005b3480156100f157600080fd5b506100fa6102e0565b6040518082815260200191505060405180910390f35b34801561011c57600080fd5b5061015f6004803603602081101561013357600080fd5b81019080803573ffffffffffffffffffffffffffffffffffffffff1690602001909291905050506102e6565b6040518082815260200191505060405180910390f35b6000803373ffffffffffffffffffffffffffffffffffffffff1673ffffffffffffffffffffffffffffffffffffffff16815260200190815260200160002054811115151561022b576040517f08c379a00000000000000000000000000000000000000000000000000000000081526004018080602001828103825260138152602001807f4e6f7420656e6f7567682062616c616e6365210000000000000000000000000081525060200191505060405180910390fd5b806000803373ffffffffffffffffffffffffffffffffffffffff1673ffffffffffffffffffffffffffffffffffffffff168152602001908152602001600020600082825403925050819055503373ffffffffffffffffffffffffffffffffffffffff168160405180600001905060006040518083038185875af1925050503d80600081146102d5576040519150601f19603f3d011682016040523d82523d6000602084013e6102da565b606091505b50505050565b60015481565b6000602052806000526040600020600091509050548156fea165627a7a723058209752f39a4167f255671dd3e774185cf62e9e624f4c60c71ae592d17d22ae3a4a0029",
  "source": "pragma solidity 0.5.0;\r\n\r\ncontract VictimContract {\r\n    mapping(address => uint256) public balance;\r\n    uint256 public payableCounter;\r\n\r\n    function() external payable {\r\n        balance[msg.sender] += msg.value;\r\n        payableCounter++;\r\n    }\r\n\r\n    function withdraw(uint256 amount) public payable {\r\n        require(amount <= balance[msg.sender], \"Not enough balance!\");\r\n        balance[msg.sender] -= amount;\r\n        msg.sender.call.value(amount)(\"\");\r\n    }\r\n}\r\n",
  "sourcePath": "C:\\Lgm local\\reentrancy_attack_example\\contracts\\VictimContract.sol",
  "compiler": {
    "name": "solc",
    "version": "0.5.0+commit.1d4f565a.Emscripten.clang"
  },
  "schemaVersion": "3.3.2",
  "updatedAt": "2020-11-18T12:53:37.610Z",
  "networkType": "ethereum",
  "devdoc": {
    "methods": {}
  },
  "userdoc": {
    "methods": {}
  }
}